:020000040800F2
:100000000000032029290108311A0108331A0108C8
:10001000351A0108371A0108391A010800000000D2
:100020000000000000000000000000003B1A010872
:100030003D1A0108000000003F1A0108411A01089A
:10004000792901087929010879290108491A010843
:10005000591A0108611A010879290108792901084A
:1000600079290108792901087929010879290108E4
:1000700079290108792901087929010879290108D4
:100080007929010879290108651A010879290108E7
:1000900079290108792901087929010879290108B4
:1000A00079290108792901087929010879290108A4
:1000B000792901087929010879290108751A0108A7
:1000C000851A01087929010879290108951A01087A
:1000D000792901087929010879290108A51A010857
:1000E00079290108551B0108792901087929010896
:1000F0007929010879290108792901087929010854
:100100007929010879290108792901087929010843
:10011000651B010879290108792901087D1B01085F
:100120007929010879290108792901087929010823
:100130008D1B01087929010879290108792901080D
:100140007929010879290108792901087929010803
:1001500079290108792901087929010879290108F3
:1001600079290108792901087929010879290108E3
:1001700079290108792901087929010879290108D3
:1001800079290108792901087929010879290108C3
:1001900079290108792901087929010879290108B3
:0C01A000000000000000000079290108A8
:1001B00010B5054C237833B9044B13B10448AFF3A1
:1001C00000800123237010BD743300200000000064
:1001D000F4A1010808B5034B1BB103490348AFF371
:1001E000008008BD0000000078330020F4A1010861
:1001F00010F8012B11F8013B012A28BF9A42F7D0D1
:10020000D01A7047034613F8012B002AFBD1181AA5
:1002100001387047000000000000000000000000EE
:1002200001F0FF01102A2BDB10F0070F08D010F8A7
:10023000013B013A8B422DD010F0070F42B3F6D1AB
:10024000F0B441EA012141EA014122F007047FF0C4
:1002500000070023F0E80256083C85EA010586EA1B
:10026000010685FA47F5A3FA87F586FA47F6A5FA57
:1002700087F68EB9EED1F0BC01F0FF0102F0070263
:1002800032B110F8013B013A83EA010313B1F8D10E
:100290000020704701387047002D06BF35460338EF
:1002A000073815F0010F07D1013015F4807F02BF28
:1002B000013015F4C03F0130F0BC0138704700BF79
:1002C00081F0004102E000BF83F0004330B54FEA07
:1002D00041044FEA430594EA050F08BF90EA020F74
:1002E0001FBF54EA000C55EA020C7FEA645C7FEA07
:1002F000655C00F0E2804FEA5454D4EB5555B8BF2A
:100300006D420CDD2C4480EA020281EA030382EA9A
:10031000000083EA010180EA020281EA0303362D2C
:1003200088BF30BD11F0004F4FEA01314FF4801CFF
:100330004CEA113102D0404261EB410113F0004F11
:100340004FEA03334CEA133302D0524263EB4303C8
:1003500094EA050F00F0A780A4F10104D5F1200E66
:100360000DDB02FA0EFC22FA05F2801841F10001C1
:1003700003FA0EF2801843FA05F359410EE0A5F195
:1003800020050EF1200E012A03FA0EFC28BF4CF0C6
:10039000020C43FA05F3C01851EBE37101F000457C
:1003A00007D54FF0000EDCF1000C7EEB00006EEB89
:1003B0000101B1F5801F1BD3B1F5001F0CD3490813
:1003C0005FEA30004FEA3C0C04F101044FEA44526A
:1003D00012F5800F80F09A80BCF1004F08BF5FEAF1
:1003E000500C50F1000041EB045141EA050130BDD1
:1003F0005FEA4C0C404141EB0101013C28BFB1F5E3
:10040000801FE9D291F0000F04BF01460020B1FA2D
:1004100081F308BF2033A3F10B03B3F120020CDA00
:100420000C3208DD02F1140CC2F10C0201FA0CF0DE
:1004300021FA02F10CE002F11402D8BFC2F1200C43
:1004400001FA02F120FA0CFCDCBF41EA0C019040F9
:10045000E41AA2BF01EB0451294330BD6FEA040442
:100460001F3C1CDA0C340EDC04F11404C4F120022D
:1004700020FA04F001FA02F340EA030021FA04F33F
:1004800045EA030130BDC4F10C04C4F1200220FA96
:1004900002F001FA04F340EA0300294630BD21FAD4
:1004A00004F0294630BD94F0000F83F4801306BF9A
:1004B00081F480110134013D4EE77FEA645C18BF8E
:1004C0007FEA655C29D094EA050F08BF90EA020F25
:1004D00005D054EA000C04BF1946104630BD91EA1D
:1004E000030F1EBF0021002030BD5FEA545C05D120
:1004F0004000494128BF41F0004130BD14F580045F
:100500003CBF01F5801130BD01F0004545F0FE41D2
:1005100041F470014FF0000030BD7FEA645C1ABF07
:10052000194610467FEA655C1CBF0B46024650EA3E
:10053000013406BF52EA033591EA030F41F400216A
:1005400030BD00BF90F0000F04BF0021704730B5F0
:100550004FF4806404F132044FF000054FF00001C5
:1005600050E700BF90F0000F04BF0021704730B586
:100570004FF4806404F1320410F0004548BF40425B
:100580004FF000013EE700BF42004FEAE2014FEAB0
:1005900031014FEA02701FBF12F07F4393F07F4F8B
:1005A00081F06051704732F07F4208BF704793F08E
:1005B0007F4F04BF41F40021704730B54FF46074A1
:1005C00001F0004521F000411CE700BF50EA0102A4
:1005D00008BF704730B54FF000050AE050EA01024D
:1005E00008BF704730B511F0004502D5404261EBBD
:1005F00041014FF4806404F132045FEA915C3FF4FE
:10060000D8AE4FF003025FEADC0C18BF03325FEA9A
:10061000DC0C18BF033202EBDC02C2F1200300FA4B
:1006200003FC20FA02F001FA03FE40EA0E0021FA70
:1006300002F11444BDE600BF70B54FF0FF0C4CF45E
:10064000E06C1CEA11541DBF1CEA135594EA0C0F10
:1006500095EA0C0F00F0DEF82C4481EA030621EA4B
:100660004C5123EA4C5350EA013518BF52EA033586
:1006700041F4801143F4801338D0A0FB02CE4FF038
:100680000005E1FB02E506F00042E0FB03E54FF068
:100690000006E1FB03569CF0000F18BF4EF0010E60
:1006A000A4F1FF04B6F5007F64F5407404D25FEA5C
:1006B0004E0E6D4146EB060642EAC62141EA55510F
:1006C0004FEAC52040EA5E504FEACE2EB4F1FD0C51
:1006D00088BFBCF5E06F1ED8BEF1004F08BF5FEACF
:1006E000500E50F1000041EB045170BD06F0004681
:1006F00046EA010140EA020081EA0301B4EB5C042E
:10070000C2BFD4EB0C0541EA045170BD41F4801125
:100710004FF0000E013C00F3AB8014F1360FDEBF4A
:10072000002001F0004170BDC4F10004203C35DA26
:100730000C341BDC04F11404C4F1200500FA05F3A9
:1007400020FA04F001FA05F240EA020001F000424A
:1007500021F0004110EBD37021FA04F642EB0601C0
:100760005EEA430E08BF20EAD37070BDC4F10C04EA
:10077000C4F1200500FA04F320FA05F001FA04F2AE
:1007800040EA020001F0004110EBD37041F100019A
:100790005EEA430E08BF20EAD37070BDC4F12005A5
:1007A00000FA05F24EEA020E20FA04F301FA05F20D
:1007B00043EA020321FA04F001F0004121FA04F2B5
:1007C00020EA020000EBD3705EEA430E08BF20EA85
:1007D000D37070BD94F0000F0FD101F000464000BF
:1007E00041EB010111F4801F08BF013CF7D041EA41
:1007F000060195F0000F18BF704703F00046520045
:1008000043EB030313F4801F08BF013DF7D043EA15
:100810000603704794EA0C0F0CEA135518BF95EACB
:100820000C0F0CD050EA410618BF52EA4306D1D152
:1008300081EA030101F000414FF0000070BD50EA71
:10084000410606BF1046194652EA430619D094EAFB
:100850000C0F02D150EA013613D195EA0C0F05D1E5
:1008600052EA03361CBF104619460AD181EA030139
:1008700001F0004141F0FE4141F470014FF00000F1
:1008800070BD41F0FE4141F4780170BD70B54FF08C
:10089000FF0C4CF4E06C1CEA11541DBF1CEA13550C
:1008A00094EA0C0F95EA0C0F00F0A7F8A4EB0504EE
:1008B00081EA030E52EA03354FEA013100F08880E5
:1008C0004FEA03334FF0805545EA131343EA1263AE
:1008D0004FEA022245EA111545EA10654FEA002663
:1008E0000EF000419D4208BF964244F1FD0404F51C
:1008F000407402D25B084FEA3202B61A65EB030578
:100900005B084FEA32024FF480104FF4002CB6EB34
:10091000020E75EB030E22BFB61A754640EA0C00B4
:100920005B084FEA3202B6EB020E75EB030E22BFF4
:10093000B61A754640EA5C005B084FEA3202B6EB35
:10094000020E75EB030E22BFB61A754640EA9C00F4
:100950005B084FEA3202B6EB020E75EB030E22BFC4
:10096000B61A754640EADC0055EA060E18D04FEA82
:10097000051545EA16754FEA06164FEAC30343EA22
:1009800052734FEAC2025FEA1C1CC0D111F4801FEF
:100990000BD141EA00014FF000004FF0004CB6E7E8
:1009A00011F4801F04BF01430020B4F1FD0C88BF87
:1009B000BCF5E06F3FF6AFAEB5EB030C04BFB6EB92
:1009C000020C5FEA500C50F1000041EB045170BD85
:1009D0000EF0004E4EEA113114EB5C04C2BFD4EBB2
:1009E0000C0541EA045170BD41F480114FF0000E36
:1009F000013C90E645EA060E8DE60CEA135594EAB2
:100A00000C0F08BF95EA0C0F3FF43BAF94EA0C0FB4
:100A10000AD150EA01347FF434AF95EA0C0F7FF429
:100A200025AF104619462CE795EA0C0F06D152EA7D
:100A300003353FF4FDAE1046194622E750EA410661
:100A400018BF52EA43067FF4C5AE50EA41047FF472
:100A50000DAF52EA43057FF4EBAE12E74FF0FF3CD7
:100A600006E000BF4FF0010C02E000BF4FF0010CA8
:100A70004DF804CD4FEA410C7FEA6C5C4FEA430C21
:100A800018BF7FEA6C5C1BD001B050EA410C0CBF70
:100A900052EA430C91EA030F02BF90EA020F0020D2
:100AA000704710F1000F91EA030F58BF994208BF39
:100AB00090422CBFD8176FEAE37040F001007047F6
:100AC0004FEA410C7FEA6C5C02D150EA013C07D14D
:100AD0004FEA430C7FEA6C5CD6D152EA033CD3D098
:100AE0005DF8040B704700BF8446104662468C4692
:100AF0001946634600E000BF01B5FFF7B7FF0028C5
:100B000048BF10F1000F01BD4DF808EDFFF7F4FFED
:100B10000CBF012000205DF808FB00BF4DF808ED78
:100B2000FFF7EAFF34BF012000205DF808FB00BF9B
:100B30004DF808EDFFF7E0FF94BF012000205DF8BD
:100B400008FB00BF4DF808EDFFF7CEFF94BF012072
:100B500000205DF808FB00BF4DF808EDFFF7C4FF6B
:100B600034BF012000205DF808FB00BF4FEA410CB4
:100B70007FEA6C5C02D150EA013C0AD14FEA430C97
:100B80007FEA6C5C02D152EA033C02D14FF00000D4
:100B900070474FF0010070474FEA410212F5001212
:100BA00015D211D56FF47873B3EB625212D94FEAB4
:100BB000C12343F0004343EA505311F0004F23FA9E
:100BC00002F018BF404270474FF00000704750EAF3
:100BD000013005D111F0004008BF6FF000407047B0
:100BE0004FF00000704700BF4A0011D212F500120A
:100BF00011D20DD56FF47873B3EB62520ED44FEA75
:100C0000C12343F0004343EA505323FA02F07047F4
:100C10004FF00000704750EA013002D14FF0FF3032
:100C200070474FF0000070474FEA4102B2F1E043D5
:100C300024BFB3F5001CDCF1FE5C0DD901F0004CC3
:100C40004FEAC0024CEA5070B2F1004F40EB830013
:100C500008BF20F00100704711F0804F21D113F13F
:100C60003872BCBF01F00040704741F480114FEA78
:100C70005252C2F11802C2F1200C10FA0CF320FA01
:100C800002F018BF40F001004FEAC1234FEAD3231E
:100C900003FA0CFC40EA0C0023FA02F34FEA430388
:100CA000CCE77FEA625307D150EA01331EBF4FF011
:100CB000FE4040F44000704701F0004040F0FE402C
:100CC00040F40000704700BF53B94AB9002908BF7B
:100CD00000281CBF4FF0FF314FF0FF3000F0A4B9E7
:100CE000ADF1080C6DE904CE00F03CF8DDF804E04D
:100CF000DDE9022304B0704738B500220023044622
:100D00000D46FFF70BFF28B920462946BDE83840BD
:100D100000F00AB8204605F1004100F005F8404215
:100D200061EB410138BD00BFD0B50C4B0022064637
:100D30000F46FFF781FCFFF757FF0446FFF702FC61
:100D4000074B0022FFF778FC02460B463046394637
:100D5000FFF7BAFAFFF748FF2146D0BD0000F03D8B
:100D60000000F0412DE9F047089D04468C46002B19
:100D700040F083808A42174647D9B2FA82F242B1E4
:100D8000C2F1200024FA00F09140974040EA010CA3
:100D900094404FEA1748230CBCFBF8F61FFA87FE75
:100DA00008FB16C143EA014306FB0EF1994209D93B
:100DB000FB1806F1FF3080F01981994240F216814C
:100DC000023E3B445B1AA4B2B3FBF8F008FB1033BD
:100DD00044EA034400FB0EFEA64509D93C1900F184
:100DE000FF3380F00581A64540F2028102383C4481
:100DF00040EA0640A4EB0E0400261DB1D4400023B7
:100E0000C5E900433146BDE8F08702B9FFDEB2FA1A
:100E100082F2002A50D1CB1B4FEA174E1FFA87F8F7
:100E20000126B3FBFEFC210C0EFB1C3341EA0341FF
:100E300008FB0CF38B4207D979180CF1FF3002D272
:100E40008B4200F2E9808446C91AA3B2B1FBFEF0DE
:100E50000EFB101143EA014408FB00F8A04507D936
:100E60003C1900F1FF3302D2A04500F2D9801846A8
:100E7000A4EB080440EA0C40BFE78B4209D9002DDF
:100E800000F0B1800026C5E9000130463146BDE8DA
:100E9000F087B3FA83F6002E4AD18B4202D3824206
:100EA00000F2B880841A61EB030101208C46002D0A
:100EB000A8D0C5E9004CA5E7C2F1200320FA03F64B
:100EC000974001FA02F04FEA174ED9403043030C25
:100ED000B1FBFEF61FFA87F80EFB161143EA014339
:100EE00006FB08F1994204FA02F409D9FB1806F14D
:100EF000FF3C80F08D80994240F28A80023E3B4464
:100F00005B1A81B2B3FBFEF00EFB103341EA0341E2
:100F100000FB08F38B4207D9791800F1FF3C73D22C
:100F20008B4271D902383944CB1A40EA064678E739
:100F3000C6F1200C03FA06F422FA0CF31C4320FA43
:100F40000CF701FA06F34FEA144E21FA0CF11F4395
:100F50003B0CB1FBFEF91FFA84F80EFB191143EAB2
:100F6000014109FB08FA8A4502FA06F200FA06F383
:100F700008D9611809F1FF3048D28A4546D9A9F14C
:100F800002092144A1EB0A01BFB2B1FBFEF00EFB46
:100F9000101147EA014700FB08F8B84507D9E719DF
:100FA00000F1FF312ED2B8452CD90238274440EA4F
:100FB0000940A7EB0807A0FB02894F45C6464946F2
:100FC0001AD317D05DB1B3EB0E0267EB010707FA36
:100FD0000CFCF2404CEA0202F740C5E9002700266B
:100FE0003146BDE8F0872E4628460BE70646E9E67F
:100FF0001846FDE64345E5D2B8EB020E69EB040165
:101000000138DFE70846D2E760468DE78146B9E759
:10101000664675E730464AE7ACF1020C394413E7FF
:1010200002383C4424E700BF704700BF10B50446B7
:101030000E4B18784FF47A73B3FBF0F30C4A106838
:10104000B0FBF3F000F0C4FC68B90F2C01D901200B
:101050000AE0002221464FF0FF3000F077FC034BFE
:101060005C60002000E0012010BD00BF00000020F7
:101070005C29002008B50B4B1A6842F400721A6014
:101080001A6842F480621A601A6842F480721A6028
:10109000032000F049FC0020FFF7C8FF10F09CFC83
:1010A000002008BD003C0240034A1168034B1B7836
:1010B0000B441360704700BFAC44002000000020C8
:1010C000014B1868704700BFAC44002038B5044697
:1010D000FFF7F6FF0546B4F1FF3F02D0044B1B7843
:1010E0001C44FFF7EDFF401BA042FAD338BD00BF00
:1010F000000000204A4B5A6822F440325A605A6875
:1011000041680A435A600268536823F4807353604D
:1011100002685368016943EA012353600268536817
:1011200023F0407353600268536881680B43536037
:101130000268936823F40063936002689368C1684F
:101140000B439360826A374B9A4257D00268936888
:1011500023F07063936002689368816A0B43936025
:101160000268936823F04053936002689368C16AF1
:101170000B4393600268936823F002039360026854
:101180009368017E43EA4103936090F82030002B7E
:101190003FD00268536843F40063536002685368A9
:1011A00023F46043536001684B68426A013A43EAA2
:1011B00042334B600268D36A23F47003D362016840
:1011C000CB6AC269013A43EA0253CB620268936870
:1011D00023F4007393600268936890F8301043EA38
:1011E000412393600268936823F4806393600268EC
:1011F0009368416943EA812393607047026893686A
:1012000023F0706393600268936823F04053936007
:10121000B0E70268536823F400635360CAE700BF75
:10122000002301400100000F38B310B50446036CE1
:1012300043B1236C13F0100F0BD00120002384F86E
:101240003C3010BD0AF03CFE0023636484F83C305F
:10125000EFE7236C23F4885323F0020343F00203E7
:1012600023642046FFF746FF00206064236C23F0D0
:10127000030343F001032364E0E70120704700000B
:1012800082B00023019390F83C30012B00F0858060
:10129000012380F83C3003689A6812F0010F13D1E3
:1012A0009A6842F001029A60404B1B68404AA2FBD8
:1012B00003239B0C03EB4303019302E0019B013BDF
:1012C0000193019B002BF9D10268936813F0010F81
:1012D00065D0036C23F4E06323F0010343F48073CF
:1012E0000364536813F4806F05D0036C23F44053F8
:1012F00043F480530364036C13F4805F22D0436C87
:1013000023F006034364002380F83C306FF022038F
:1013100013600268536843F0806343F02003536016
:10132000244B5B6813F01F0F27D10368224A9342B6
:1013300011D002F58072934207D0204A934214D014
:1013400000202DE000234364DDE702F500725268BF
:1013500012F01F0FF1D19A6812F0405F22D19A6803
:1013600042F080429A6000201AE002F580725268D2
:1013700012F0100FEFD0002012E003680E4A9342E3
:1013800001D000200CE09A6812F0405F0CD19A68FE
:1013900042F080429A60002002E0022000E000203B
:1013A00002B070470020FBE70020F9E75C2900202D
:1013B00083DE1B4300230140002001400022014046
:1013C00030B583B013460022019290F83C20012AE8
:1013D00000F09A800546012280F83C20026890685F
:1013E00010F0010F13D1906840F0010090604B4A5B
:1013F00010684B4AA2FB0020800C00EB40000190DB
:1014000002E0019C013C019401980028F9D12A686E
:10141000906810F0010F79D0286C20F4E06020F083
:10142000010040F480702864526812F4806F05D087
:101430002A6C22F4405242F480522A642A6C12F43C
:10144000805F36D06A6C22F006026A64002285F85A
:101450003C20AA6B3348D063AA6B33481064AA6B54
:101460003248D0642A686FF0220010602868426811
:1014700042F0806242602868826842F48072826032
:1014800028680A4600F14C01A86B00F09DFB284B30
:101490005B6813F01F0F27D12B68264A934211D0A7
:1014A00002F58072934207D0234A934214D0002061
:1014B0002DE000226A64C9E702F50072526812F05A
:1014C0001F0FF1D19A6812F0405F22D19A6842F062
:1014D00080429A6000201AE002F58072526812F091
:1014E000100FEFD0002012E02B68124A934201D077
:1014F00000200CE09A6812F0405F0CD19A6842F02C
:1015000080429A60002002E0022000E0002003B048
:1015100030BD0020FBE70020F9E700BF5C29002078
:1015200083DE1B430F1700089D150008F9160008FD
:1015300000230140002001400022014090F83C308F
:10154000012B28D010B50446012380F83C300268F6
:10155000936823F00103936003689A6812F0010F07
:1015600004D00020002384F83C3010BD9A6822F497
:1015700080729A60806B00F061FB2268536823F0F0
:1015800080635360236C23F4885323F0010343F0FA
:1015900001032364E6E702207047704708B5806BBB
:1015A000FFF7FBFF08BD7047704738B50446026877
:1015B0001168536811F0020F2FD003F0200363B3BA
:1015C000036C13F0100F03D1036C43F40073036436
:1015D000936813F0405F19D1237EBBB9D36A13F42B
:1015E000700F03D0936813F4806F0FD1536823F00A
:1015F00020035360236C23F480732364236C13F45F
:10160000805F03D1236C43F001032364204610F074
:1016100071FD23686FF012021A60236819685A6816
:1016200002F0800211F0040F36D0002A34D0226C70
:1016300012F0100F03D1226C42F4005222649A6817
:1016400012F4401F21D19A6B12F4401F03D09A6804
:1016500012F4806F19D15A6812F4806F15D19A680C
:1016600012F0405F11D1227E7AB95A6822F08002CE
:101670005A60236C23F480532364236C13F4807F1B
:1016800003D1236C43F001032364204600F04AF9A0
:1016900023686FF00C021A6022681168536803F027
:1016A000400311F0010F04D01BB1136813F0010FB8
:1016B00009D122681168536803F0806311F0200F8C
:1016C00000D063B938BD236C43F4803323642046D3
:1016D000FFF769FF23686FF001021A60E9E7636CA6
:1016E00043F0020363646FF0200515602046FFF7A6
:1016F0005BFF23681D60E5E708B5806B402303644A
:10170000436C43F004034364FFF74EFF08BD08B584
:101710000346806B026C12F0500F25D1036C43F42A
:101720000073036403689A6812F0405F19D1027E67
:10173000BAB9DA6A12F4700F03D09A6812F4806FA3
:101740000FD15A6822F020025A60036C23F4807390
:101750000364036C13F4805F03D1036C43F0010353
:10176000036410F0C7FC08BD026C12F0100F04D126
:10177000826BD26C18469047F5E7FFF715FFF2E74A
:1017800030B482B00023019390F83C30012B00F07C
:10179000BD80012380F83C300B68092B3ED90568D9
:1017A000EA689BB203EB43031E3B072404FA03F3EE
:1017B00022EA0303EB600568EA688C680B8803EB98
:1017C00043031E3B04FA03F31343EB604B68062B01
:1017D0003AD805686A6B03EB8303053B1F2404FAC0
:1017E00003F322EA03036B6305686A6B4B6803EB40
:1017F0008303053B0C8804FA03F313436B6302680D
:10180000434B9A4250D00268414B9A4259D0002330
:1018100080F83C30184602B030BC704705682A6931
:101820009BB203EB4303072404FA03F322EA030306
:101830002B6105682A698C680B8803EB430304FA63
:1018400003F313432B61C1E70C2B16D805682A6BF1
:1018500003EB8303233B1F2404FA03F322EA03036D
:101860002B6305682A6B4B6803EB8303233B0C88CF
:1018700004FA03F313432B63C1E70568EA6A03EB39
:101880008303413B1F2404FA03F322EA0303EB62C0
:101890000568EA6A4B6803EB8303413B0C8804FA52
:1018A00003F31343EB62AAE70B68122BABD1194B7E
:1018B0005A6822F400025A605A6842F480025A6060
:1018C000A1E70B68144A934201D0112B9FD1114B11
:1018D0005A6822F480025A605A6842F400025A6040
:1018E0000A680D4B9A4292D10C4B1B680C4AA2FB22
:1018F00003239B0C03EB83035B00019302E0019B3A
:10190000013B0193019B002BF9D180E7022082E784
:101910000020014000230140120000105C2900203B
:1019200083DE1B4370470000074AD36823F4E0635B
:101930001B041B0C000200F4E060034343F0BF6390
:1019400043F40033D360704700ED00E030B4174B30
:10195000DB68C3F30223C3F10704042C28BF04246B
:101960001D1D062D18D9033B4FF0FF3505FA04F471
:1019700021EA0401994005FA03F322EA030319431B
:1019800000280BDB0901C9B200F1604000F561409D
:1019900080F8001330BC70470023E5E700F00F002B
:1019A0000901C9B2024B1954F4E700BF00ED00E091
:1019B00014ED00E0002807DB00F01F0240090123BE
:1019C0009340024A42F82030704700BF00E100E037
:1019D0000138B0F1807F0AD2064B5860064AF021E8
:1019E00082F823100020986007221A6070470120B7
:1019F000704700BF10E000E000ED00E030B4056883
:101A00002C6824F480242C60046863608368402B75
:101A100005D0036899600368DA6030BC70470368DA
:101A20009A600368D960F8E710B40368D9B2103936
:101A30000C4AA2FB014212090B4CA25CC2655F2951
:101A400009D923F47F7323F0030304338365806D86
:101A50005DF8044B704723F47F7323F00303836521
:101A6000F5E700BFABAAAAAA10A20108836A82699F
:101A700092B9012B0AD0022B02D00BB10020704783
:101A8000C36A13F0807F28D100207047C36AB3F186
:101A9000C07F24D000207047B2F5005F09D0022B30
:101AA00025D9032B25D1C36A13F0807F23D10020D1
:101AB0007047032B03D8DFE803F01404140A002056
:101AC0007047C36A13F0807F0DD100207047C36A4E
:101AD000B3F1C07F09D0002070470120704701207A
:101AE0007047012070470120704701207047012096
:101AF00070470020704701207047000070B5044611
:101B0000FFF7DEFA002C5BD00546002384F8343062
:101B1000022384F835302268136823F00103136030
:101B200023681A6812F0010F0AD0FFF7C9FA431BA5
:101B3000052BF5D920236365032084F8350070BD9B
:101B40001A68204810406168A2680A43E1680A43A5
:101B500021690A4361690A43A1690A43E1690A43A9
:101B6000216A0A430243616A04291ED01A6026686A
:101B7000756925F00705636A1D43042B07D1A36A25
:101B80001D43E36A1BB12046FFF770FF90B97561F2
:101B90002046FFF749FFE26D3F239340836000201A
:101BA0006065012384F83530C9E7E16A206B0143A1
:101BB0000A43DBE740236365012084F83500BEE774
:101BC0000120BCE73F8010F038B50446856D90F8E1
:101BD0003400012830D0012084F8340094F8350016
:101BE000C0B2012804D0002384F83430022038BD6C
:101BF000022084F83500002060652046FFF7FEFED5
:101C0000E26D3F239340AB602268136843F01603F4
:101C100013602268536943F080035361236C23B13E
:101C20002268136843F0080313602268136843F0C6
:101C3000010313600020DAE70220D8E770B50446FC
:101C4000866DFFF73DFA94F83530DBB2022B06D0F3
:101C500080236365002384F83430012070BD05467D
:101C60002268136823F0160313602268536923F077
:101C700080035361236CE3B12268136823F00803E7
:101C800013602268136823F00103136023681B6844
:101C900013F0010F11D0FFF713FA431B052BF5D9F1
:101CA00020236365002384F83430032084F8350052
:101CB000D4E7A36C002BDFD1E3E7E26D3F23934031
:101CC000B360002084F83400012384F83530C5E780
:101CD00090F83530DBB2022B03D08023436501201E
:101CE0007047052380F835300268136823F001033C
:101CF0001360002070470000F0B583B00446002355
:101D00000193724B1D68724BA3FB0535AD0A876DBD
:101D10003E68C26D08239340334210D003681A68AE
:101D200012F0040F0BD01A6822F004021A60C26D80
:101D300008239340BB60436D43F001034365E26DAC
:101D400001239340334209D02268526912F0800F78
:101D500004D0BB60636D43F002036365E26D04234E
:101D60009340334209D02268126812F0020F04D067
:101D7000BB60636D43F004036365E26D1023934021
:101D8000334224D02268126812F0080F1FD0BB60C3
:101D900023681A6812F4802F0DD01B6813F4002FEB
:101DA00004D1236C9BB12046984710E0A36C73B11B
:101DB000204698470BE01A6812F4807F03D11A6816
:101DC00022F008021A60236C0BB120469847E26D9E
:101DD00020239340334255D02268126812F0100F2E
:101DE00050D0BB6094F83530DBB2052B0ED02368A1
:101DF0001A6812F4802F33D01B6813F4002F2AD1F5
:101E0000636C002B3ED0204698473BE02268136865
:101E100023F0160313602268536923F08003536193
:101E2000236CA3B12268136823F008031360E26DEA
:101E30003F239340BB60002384F83430012384F8AF
:101E40003530236D002B3FD0204698473CE0A36CF3
:101E5000002BE7D1EBE7E36BA3B12046984711E0F5
:101E60001A6812F4807F09D11A6822F010021A60F1
:101E7000002384F83430012384F83530E36B0BB150
:101E800020469847636DFBB1636D13F0010F17D0C7
:101E9000052384F835302268136823F001031360AA
:101EA000019B01330193AB4204D823681B6813F0F4
:101EB000010FF5D1002384F83430012384F8353044
:101EC000E36C0BB12046984703B0F0BD5C290020BD
:101ED000B5814E1B90F8350070470000507913799A
:101EE00043EA002307480B50D07893781B0443EA59
:101EF0000063507843EA002312781343024A8B5060
:101F0000704700BF4080024044800240016841F2B7
:101F100018028B5843F400538B507047016841F20C
:101F200018028B5843F002038B50704782B0084B65
:101F30001B68084AA2FB03235B0A00FB03F301931F
:101F400000BF019B5A1E0192002BF9D102B07047CD
:101F50005C290020D34D621010B582B004460023E6
:101F600001930268136843F00803136003681B6859
:101F700001930120FFF7DAFF2368019A1A6002B08B
:101F800010BD10B582B004460023019302681368A7
:101F900043F00403136003681B6801930120FFF7FB
:101FA000C5FF2368019A1A6002B010BD30B583B036
:101FB000044600230193026841F21805535943F483
:101FC0008013535103685B5901930120FFF7AEFF63
:101FD0002368019A5A5103B030BD000070B59EB01D
:101FE000044629B14FF40063C3604FF4804383601B
:101FF000E369002B6AD14FF48063079321680B6873
:10200000394A1A40A368E06803430798034343F43E
:10201000007313430B6023681D680120FFF756F817
:1020200023681D60236840225A6023685D68012090
:10203000FFF74CF823685D60236800259D602368E6
:10204000DD602268936923F0BE031B041B0C43F080
:102050008003936123689E690120FFF737F82368A6
:102060009E612368DD612368DD690120FFF72EF89A
:102070002368DD61226841F2180551591B4B0B4062
:1020800043F0087343F00403535123685E59012061
:10209000FFF71CF823685E51236803F58053144A48
:1020A0001A60236803F580531D680120FFF70EF8BE
:1020B000236803F580531D60A369012B09D0626971
:1020C00000212046FFF70AFF1EB070BD00230793D2
:1020D00094E7216841F21C028B5843F4803343F0AB
:1020E00040038B50EBE700BF0F8120FF233FDEF85A
:1020F0008020C102F0B490F84540012C32D0012478
:1021000080F84540022480F84440C162002401E088
:10211000F16001349C4218D2670101EB44164FF480
:102120008015CD5140F2F45505FB0425B560C56915
:102130001DB9CD5945F44005CD515D1EA542E7D9E5
:10214000651C01EB4515F560E3E7026841F21003F9
:10215000D150012380F84430002380F845301846E0
:10216000F0BC70470220FBE7F0B490F84540012C2A
:102170002FD0012480F84540022480F84440816239
:10218000002401E0E96001349C4215D2660101EBB4
:1021900044154FF000478F5144F2F4566E6040F200
:1021A000F45606FB0426AE605E1EA642EAD9661C03
:1021B00001EB4616EE60E6E7026841F20C03D150EF
:1021C000012380F84430002380F845301846F0BCE5
:1021D00070470220FBE7000090F84530012B00F02B
:1021E0008580012380F84530022380F84430B1B166
:1021F000C36A1A68002A1ADB30B440F2F4529142E2
:102200001DD93B4CA4FB0124A40A40F2F45202FB6A
:10221000141202B10134012C11D0002348E0012333
:1022200080F84430002280F8452018467047122379
:1022300080F84430002380F84530012070471A6848
:1022400042F040521A60C36AC1F30C015960C26A7D
:10225000136843F000431360C36ADB68C36203681A
:1022600041F214029A5812F0040F08D041F21402FD
:1022700004219950026841F204030021D150012346
:1022800080F84430002380F84530184630BC704751
:10229000C26A40F2F4555560621E9A4217D0C56A70
:1022A0002A6842F000422A60C26AD268C2620133E0
:1022B0009C42D4D9C56A2A6822F040522A60002B79
:1022C000E6D1C56A2A6842F080522A60E0E7C56A12
:1022D0002A6842F000522A60064A02FB041202F207
:1022E000F452C56AC2F30C026A60D8E70220704754
:1022F0000BB002AC0CFAFFFF90F84530012B40D038
:10230000012380F84530022380F84430836A1A683C
:10231000002A0EDB1A6812F4807F12D11A6812F4B8
:10232000007F28D003630022426301228263DB68BE
:102330008362012380F84430002280F8452018464B
:102340007047826B01328263012A12D043631A689C
:10235000C2F30D42043AC263026B92680264DB6806
:102360008362012380F84430002380F8453018460A
:1023700070470363EAE7826B01328263DB68836242
:10238000D7E702207047F8B590F84430DBB2822BD3
:1023900033D005461646822380F84430006802692F
:1023A00002F01C022B8ADB029BB213438C0104F463
:1023B000F8641C4344F001040461FEF781FE074603
:1023C00014F0010F10D0FEF77BFEC31BB3F5803F66
:1023D00002D22B681C69F3E7012385F844300023FF
:1023E00085F84530032007E02B685B699BB23360BA
:1023F000012385F844300020F8BD0220FCE790F866
:102400004430DBB2422B32D070B50546422380F80F
:1024100044300668306900F01C002B8ADB029BB256
:1024200003438C0104F4F8641C4344F0030492B2A7
:1024300072612B681C61FEF743FE064614F0010F23
:1024400010D0FEF73DFE831BB3F5803F02D22B6810
:102450001C69F3E7012385F84430002385F84530F3
:10246000032003E0012385F84430002070BD0220E2
:102470007047000070B582B000230193002800F07F
:102480000E81044690F84430002B34D00023009392
:10249000844B5A6C42F480425A645B6C03F4804370
:1024A0000093009B804B5A6822F400025A605A68DD
:1024B000216A0A435A60236803F580531A6842F080
:1024C00001021A60FEF7FCFD0546236803F5805201
:1024D000126812F0010F13D0FEF7F2FD401BB0F5A9
:1024E000FA7FF2D9032584F84450002384F845305C
:1024F000284602B070BD80F8453009F0E9FEC5E716
:102500001D6925F01C0502F0DFF8684B0344684A9A
:10251000934255D245F0080523681D614FF40042EF
:1025200000212046FFF76BFF0546002860D1FF2001
:10253000FEF7CCFD6368002B00F09180FEF7C0FD34
:10254000064601AA01212046FFF71DFFFEF7B8FD50
:10255000801B41F28833984252D8019B13F0040F3C
:10256000EFD04FF4805200212046FFF748FF0028AB
:1025700052D1FEF7A5FD064601AA01212046FFF72C
:1025800002FFFEF79DFD801B41F2883398424BD835
:10259000019B13F0200FEFD001AA1F212046FFF767
:1025A000F2FE00284CD1019B13F0100F50D04FF4D5
:1025B0000062E26013F0040F4DD00023A3605EE0E0
:1025C0003C4B03443C4A934202D845F00C05A3E738
:1025D0003A4B03443A4A93429ED33A4B03443A4A15
:1025E000934202D845F0040596E745F0100593E7BD
:1025F00001212046FFF7F2FC012584F8445077E7DB
:1026000001212046FFF7EAFC012384F8443000232F
:1026100084F8453003256BE701212046FFF7DEFCF7
:10262000012584F8445063E701212046FFF7D6FCDA
:10263000012384F84430002384F84530032557E70C
:1026400001212046FFF7CAFC012584F844504FE7DA
:102650000022E260AEE74FF48043A3600FE0E2683F
:10266000C2F3CF02A368C3F34F031A4300212046ED
:10267000FFF7C5FE58B940F6FF70FEF727FD0021B1
:102680002046FFF7ABFC012384F8443030E70121FA
:102690002046FFF7A3FC012584F8445028E70125D4
:1026A00026E700BF003802400038014000D3CEFECC
:1026B000C0E1E40040F1E9FD3F787D0100796CFC68
:1026C000005A6202001F0AFA7FF0FA0238B590F849
:1026D0004530012B1AD00446012580F845500223CD
:1026E00080F84430FFF738FC2046FFF74AFC2046CC
:1026F000FFF75CFC2046FFF709FC2046FFF70EFCC5
:1027000084F84450002084F8450038BD0220FCE7DE
:1027100010B409490C6924F440740C610C6944F448
:1027200040740C610C6944F001040C610260436068
:102730005DF8044B704700BF003C0240074B1A692C
:1027400022F440721A611A6942F400721A611A691D
:1027500042F001021A610160704700BF003C024074
:10276000074B1A6922F440721A611A6942F48072A6
:102770001A611A6942F001021A610180704700BFB4
:10278000003C0240064B1A6922F440721A611A6931
:102790001A611A6942F001021A610170704700BFA4
:1027A000003C0240274BDB6813F0100F07D0264A8D
:1027B000D36943F01003D361224B1022DA60214B1E
:1027C000DB6813F0200F07D01F4AD36943F00803DA
:1027D000D3611C4B2022DA601A4BDB6813F0400FE8
:1027E00007D0194AD36943F00403D361154B402243
:1027F000DA60144BDB6813F0800F07D0124AD369FC
:1028000043F00203D3610F4B8022DA600D4BDB688B
:1028100013F4807F08D00C4AD36943F00103D361DD
:10282000084B4FF48072DA60064BDB6813F0020F3E
:1028300007D0054AD36943F02003D361014B02223C
:10284000DA607047003C0240B04400207047704797
:1028500010B53B4BDB6813F4F97F13D0394B1B7871
:10286000DBB2012B3DD0374B1B78DBB2022B3ED0C5
:10287000344B5C69FFF796FF2046FFF7E8FF314BCA
:1028800000221A702E4BDB6813F0010F13D02C4B73
:102890000122DA602B4B1B78DBB293422AD0294B02
:1028A0001B78DBB2022B43D0264B5869FFF7CEFFD3
:1028B000244B00221A70234B1B788BB9204B1A69CA
:1028C00022F4004222F0FF021A611A6922F080729B
:1028D0001A611A6922F000721A611A4B00221A76E4
:1028E00010BD184BDC684FF0FF32DA60C2E7154BC1
:1028F0001C69BFE7134B5A68013A5A605B685BB1C9
:10290000104CE068FFF7A2FFE3680133E360E06882
:10291000217A00F0C5F8CEE70A4B4FF0FF34DC60B7
:1029200000221A7000F0EAF82046FFF78FFFC2E796
:1029300000F0E4F8034B1869FFF788FFB8E700BF21
:10294000003C0240B0440020094B1B69002B01DB16
:1029500000207047064B074A5A6002F188325A60DD
:102960001B69002B01DB002070470120704700BF6E
:10297000003C02402301674538B50446144B002251
:10298000DA61FEF79DFB0546124BDB6813F4803FCE
:102990000AD0B4F1FF3FF7D024B1FEF791FB401B02
:1029A000A042F1D903200DE00A4BDB6813F0010FC0
:1029B00002D0084B0122DA60064BDB6813F4F97F82
:1029C00001D1002038BDFFF7EDFE0120FAE700BF7E
:1029D000B0440020003C0240F8B516461B4A127E67
:1029E000012A30D004460D461F46184B01221A76A4
:1029F0004CF25030FFF7C0FF90B9ACB1012C18D0A9
:102A0000022C1BD032463B462846FFF781FE4CF293
:102A10005030FFF7B1FF0E4A136923F00103136131
:102A20000A4B00221A76F8BDF1B22846FFF7AAFE3B
:102A3000EDE7B1B22846FFF793FEE8E731462846B6
:102A4000FFF77CFEE3E70220EDE700BFB044002083
:102A5000003C0240114A136923F4407313610329B7
:102A60000ED0012913D00D4A136943F400431361BA
:102A70000A4A136943EA002040F48030106170472D
:102A8000136943F4004343F004031361F0E7034A7E
:102A9000136943F004031361EAE700BF003C0240FE
:102AA00010B449B1012924D0022902D04FF4407456
:102AB00003E04FF4007400E000240B2800D9043038
:102AC0000D4B196921F4407119611A6922431A6189
:102AD0001A6922F0F8021A611A6942EAC00040F04D
:102AE000020018611A6942F480321A615DF8044BE1
:102AF00070474FF48074E0E7003C0240164B1B68BF
:102B000013F4007F10D0144B1A6822F400721A607C
:102B10001A6842F400621A601A6822F400621A60AD
:102B20001A6842F400721A600B4B1B6813F4806F32
:102B300010D0094B1A6822F480621A601A6842F4B5
:102B400080521A601A6822F480521A601A6842F49D
:102B500080621A60704700BF003C0240F8B5234B0A
:102B60001B7E012B40D004460E46204B01221A76D4
:102B70004CF25030FFF700FF074680BB4FF0FF33A9
:102B800033602368012B16D0A568E368A26813445C
:102B9000AB4222D9217C2846FFF782FF4CF250300D
:102BA000FFF7EAFE124A136923F0FA03136107469E
:102BB00090B90135E9E76168207CFFF74BFF4CF2E3
:102BC0005030FFF7D9FE0746094A136923F4004342
:102BD00023F00403136100E03560FFF78FFF034B20
:102BE00000221A763846F8BD0227FBE7B0440020E1
:102BF000003C024000230F2B00F2E580F0B482B0CD
:102C000039E0092200E00022B2403A4302346E4E1D
:102C100046F824206D4A1468EA4324EA05064F6802
:102C200017F4803F01D045EA0406684C26606468CA
:102C300002EA04064F6817F4003F01D045EA040693
:102C4000624C6660A46802EA04064F6817F4801FAD
:102C500001D045EA04065D4CA660E46822404E6857
:102C600016F4001F01D045EA0402584CE26001331B
:102C70000F2B00F2A58001229A400C6804EA02059D
:102C800032EA0404F3D14C68022C01D0122C10D18A
:102C9000DE08083650F826C003F00704A7000F240A
:102CA000BC402CEA040C0C69BC4044EA0C0440F81B
:102CB0002640D0F800C05E000324B440E7432CEA6D
:102CC000040C4C6804F00304B44044EA0C040460AF
:102CD0004C6804F1FF3CBCF1010F03D9112C01D069
:102CE000122C10D1846807EA040CCC68B44044EA82
:102CF0000C048460446824EA02024C68C4F30014A3
:102D00009C4014434460C26817408A68B2403A430A
:102D1000C2604A6812F0805FA9D0002201922C4A5A
:102D2000546C44F480445464526C02F48042019226
:102D3000019A9C08A61C244A52F8267003F003024C
:102D400096000F22B24027EA0207224A90423FF43F
:102D50005AAF02F58062904222D002F58062904222
:102D600020D002F5806290421ED002F5806290422F
:102D70001CD002F5806290421AD002F58062904227
:102D800018D002F58062904216D002F5806290421F
:102D900014D002F5806290423FF433AF0A2233E749
:102DA000012231E702222FE703222DE704222BE73D
:102DB000052229E7062227E7072225E7082223E73D
:102DC00002B0F0BC7047704700380140003C014041
:102DD00000380240000002400AB1816170470904D6
:102DE00081617047436931EA030301D08161704713
:102DF00009048161704790F83E30DBB2402B10D05F
:102E00000369B3F5804F1BD0036D002B3CD1436C9D
:102E1000C3F3C813026803F0060343F0F003136121
:102E20007047036D2BB9436C026803F0FE03136116
:102E30007047436C026843F00103DBB213617047D3
:102E400090F83D30DBB2212B0FD0436C026843F089
:102E50000103DBB21361436B6BB1DB6B7BB10268C7
:102E6000536843F4006353607047436C026803F097
:102E7000FE031361EFE7826B002AEED107E0836B5C
:102E8000DB6B002BEBD102E0036D012B00D0704710
:102E9000436CC3F3C813026803F0060343F0F10365
:102EA0001361F4E7436C0268DBB21361436B3BB11F
:102EB000DB6B4BB10268536843F4006353607047A7
:102EC000826B002AF4D1FAE7836BDB6B002BF1D124
:102ED000F5E710B48BB090F83E30DAB2C16A046BFB
:102EE00090F83D30DBB2222B0BD00023099303680E
:102EF0005A6909929B690993099B0BB05DF8044BD1
:102F00007047036D0BB9402A17D0036D1BB90369D5
:102F1000B3F5404F19D0438D9BB2002B25D10293BE
:102F200003685A6902929A690292029A1A6842F4F4
:102F300000721A6000230365DFE7009303685A6993
:102F400000929B690093009BD7E7002301930368DD
:102F50005A6901929A690192019A1A6842F4807240
:102F60001A60036D01330365C7E7438D9BB2012BE4
:102F700025D0438D9BB2022B7BD00268136843F4AB
:102F80008063136003685A6812F4006F0ED011F565
:102F9000803F07D0012905D0082903D0102901D08E
:102FA000202903D15A6842F480525A6000230893C2
:102FB00003685A6908929B690893089BBAE711F560
:102FC000803F11D0082934D0202932D0122C2ED0A5
:102FD000042940D002293ED010293CD00268136851
:102FE00023F4806313603BE00268136823F480637A
:102FF000136003685A6812F4006F0CD01A6822F448
:1030000080621A600023039303685A6903929B69E4
:103010000393039B8EE7002204925A6904929A69F3
:103020000492049A1A6842F400721A6082E7012935
:10303000CED00268136823F48063136000230693E4
:1030400003685A6906929A690692069A1A6842F4C7
:1030500000721A606EE70268136843F480631360BD
:103060000023059303685A6905929B690593059BA4
:1030700060E704290ED002290CD010290AD002687A
:10308000136823F4806313600268136843F40063D9
:10309000136004E00268136843F4806313600368FC
:1030A0005A6812F4006F0ED011F5803F07D0012945
:1030B00005D0082903D0102901D0202903D15A684E
:1030C00042F480525A600023079303685A690792BA
:1030D0009B690793079B2DE7438D9BB25BB1426AC7
:1030E000036812781A61436A01334362438D9BB2CD
:1030F000013B9BB243857047438D9BB25BB1036834
:103100001A69436A1A70436A01334362438D9BB262
:10311000013B9BB243857047C36AB3F52A0F04D0C5
:10312000C36AB3F12A4F03D070470123C3627047CB
:103130000823C362F8E70000002800F0C280F8B559
:10314000044690F83D30002B6DD0242384F83D30A8
:103150002268136823F00103136001F0BBFA626870
:103160005A4B9A4264D85A4B98428CBF0023012391
:10317000002B40F0A880574DA5FB0035AF0C26680A
:10318000716821F03F0141EA9541716021680B6A45
:1031900023F03F0365684D4A95424FD87A1C13438C
:1031A0000B622568E96921F44F4121F0FF01636852
:1031B000464A93424CD801385B00B0FBF3F0013033
:1031C00040F6FC73184278D0C0F30B030B43EB615D
:1031D00021680B6823F0C003E269206A02431343AD
:1031E0000B6021688B6823F4034323F0FF032269FB
:1031F000E068024313438B602168CB6823F0FF0330
:103200006269A06902431343CB602268136843F0EC
:103210000103136000202064202384F83D302063E4
:1032200084F83E00F8BD80F83C300AF0B9FB8CE72A
:10323000294B98428CBF0023012399E74FF49672E3
:1032400002FB07F2254DA5FB025292090132A6E7C7
:10325000A268BAB9461E03EB4307B6FBF7F6013680
:10326000C6F30B06B6FA86F6760946BBC2B9421E0D
:1032700003EB4303B2FBF3F20132C2F30B0242F45D
:103280000043A3E7461E03EB830707EB8707B6FB64
:10329000F7F60136C6F30B06B6FA86F67609E4E7CA
:1032A000421E03EB830303EB8303B2FBF3F2013211
:1032B000C2F30B0242F4404388E7042386E701236C
:1032C00084E7012070470120ACE700BFA086010021
:1032D0007F841E0083DE1B43FF083D00D34D621038
:1032E00030B482B00024019490F83D40E4B2202C28
:1032F0005CD1314C2468E408304DA5FB0454240A09
:1033000004EB840404EB84040194019C013C0194CB
:10331000019C002C3BD00468A56915F0020FF4D184
:1033200090F83C50012D45D0012580F83C5025688F
:1033300015F0010F03D1256845F0010525600568EA
:103340002C6824F400642C60212480F83D40402443
:1033500080F83E4000240464049D4562BDF814508A
:103360004585458D0585164DC56241648264C364FB
:1033700004650268136843F48073136080F83C406E
:103380000268536843F4E063536020460FE0002373
:103390000363202280F83D2080F83E30026C42F02A
:1033A0002002026480F83C30012000E0022002B0DC
:1033B00030BC70470220FAE75C29002089B5F81478
:1033C0000000FFFF30B482B00024019490F83D402B
:1033D000E4B2202C63D1354C2468E408344DA5FBBD
:1033E0000454240A04EB840404EB84040194019C37
:1033F000013C0194019C002C42D00468A56915F0A1
:10340000020FF4D190F83C50012D4CD0012580F8EA
:103410003C50256815F0010F03D1256845F00105E2
:10342000256005682C6824F400642C60222480F850
:103430003D40402480F83E4000240464049D4562E1
:10344000BDF814504585458D05851A4DC56241640A
:103450008264C36404650268136843F48063136084
:103460000268136843F48073136080F83C40038D56
:1034700023B10268536843F4E063536000200FE017
:1034800000230363202280F83D2080F83E30026C48
:1034900042F02002026480F83C30012000E002206B
:1034A00002B030BC70470220FAE700BF5C29002060
:1034B00089B5F8140000FFFF70477047704708B5E2
:1034C00090F83D30DAB2438D9BB283B1416A036814
:1034D00009781961436A01334362438D9BB2013B12
:1034E0009BB24385438D9BB20BB9292A00D008BDFE
:1034F0000268536823F48063536021230363282305
:1035000080F83D30FFF7DAFFF1E7704708B590F833
:103510003D30DAB2438D9BB283B103681969436AC7
:103520001970436A01334362438D9BB2013B9BB2E6
:103530004385438D9BB20BB92A2A00D008BD02688F
:10354000536823F48063536022230363282380F8A5
:103550003D30FFF7DAFFF1E7704708B590F83D30EE
:1035600003F02803282B07D003686FF002025A618A
:10357000002380F83C3008BD0268536823F4806360
:10358000536011F0040F0BD0002311F0800F09D10C
:103590008289002180F83C101946FFF7DDFFEAE739
:1035A0000123F2E7028BF4E77047000008B590F8BA
:1035B0003D30DBB2C26A082A01D0202A01D1282B73
:1035C00006D0212B1ED003686FF480625A6108BDBB
:1035D0001A4BC3620268536823F4E06353600368C4
:1035E0006FF480625A610268136823F48063136089
:1035F00000230363202280F83D2080F83E30FFF74F
:10360000D3FFE4E70D4BC36221230363202380F83B
:103610003D30002380F83E300268536823F4E063B5
:10362000536003686FF480625A610268136823F480
:1036300080631360FFF742FFC9E700BF0000FFFF90
:1036400010B590F83D30DBB290F83E20D2B2C46A9B
:10365000018D09B9212B04D0212B3BD0402A37D032
:1036600010BD082C04D0202C02D014F5803F19D1B5
:103670000268536823F4E06353600268136843F4FC
:103680000073136000230363202380F83D3090F81B
:103690003E30DBB2402B15D0002380F83E30FFF7E0
:1036A0000BFFDDE70268536823F4E06353601123E6
:1036B0000363002380F83E30202380F83D30FFF77D
:1036C000FBFECDE7002380F83E300EF0FDFDC7E79E
:1036D000222BC5D1438D9BB22BB90268536823F4CA
:1036E00080635360BCE790F83E30DBB2402B0CD0D7
:1036F000426A036812781A61436A01334362438D58
:103700009BB2013B9BB24385AAE7036D9BB9C36C97
:10371000012B08D0836CC3F3072302681361036D88
:10372000013303659CE7836C0268DBB21361036DB0
:103730000233036594E7036D012B19D0036D022B4F
:103740008ED190F83D30DBB2222B19D090F83D306D
:10375000DBB2212B84D1426A036812781A61436A72
:1037600001334362438D9BB2013B9BB2438577E7B4
:10377000836C0268DBB21361036D013303656FE78D
:103780000268136843F48073136069E708B5C26A7E
:1037900090F83D30DBB2212B00D008BD438D9BB2A9
:1037A00063B1426A036812781A61436A0133436263
:1037B000438D9BB2013B9BB24385EEE7082A04D0C0
:1037C000202A02D012F5803F19D10268536823F4F1
:1037D000E06353600268136843F4007313600023CE
:1037E0000363202380F83D3090F83E30DBB2402B5D
:1037F00015D0002380F83E30FFF75EFECDE702686B
:10380000536823F4E063536011230363002380F8BB
:103810003E30202380F83D30FFF74EFEBDE7002309
:1038200080F83E300EF050FDB7E708B590F83D3017
:10383000DBB2222B00D008BD438D9BB2032B15D9E0
:1038400003681A69436A1A70436A01334362438DFD
:103850009BB2013B9BB24385438D9BB2032BEAD1C4
:103860000268536823F480635360E4E7C26A022A63
:10387000E1D0012BDFD80268136823F48063136062
:103880000268536823F4E063536003681A69436A6B
:103890001A70436A01334362438D9BB2013B9BB272
:1038A0004385202380F83D3090F83E30DBB2402B3A
:1038B00007D0002380F83E3012230363FFF7FDFD9D
:1038C000B9E7002380F83E3003630EF0B3FCB2E7A3
:1038D00008B5C26A438D9BB2042B14D0438D9BB2B2
:1038E000032B22D0438D9BB2022B39D003681A6977
:1038F000436A1A70436A01334362438D9BB2013BB2
:103900009BB2438510E00268536823F480635360E0
:1039100003681A69436A1A70436A01334362438D2C
:103920009BB2013B9BB2438508BD01684B6823F401
:1039300080634B60042A06D0022A04D00268136810
:1039400023F48063136003681A69436A1A70436A38
:1039500001334362438D9BB2013B9BB24385E3E756
:10396000012A0BD0102A09D0042A38D0022A36D0D6
:103970000268136843F40073136004E0026813687C
:1039800023F48063136003681A69436A1A70426AF9
:10399000531C4362438D9BB2013B9BB2438503683A
:1039A0001B695370436A01334362438D9BB2013BF1
:1039B0009BB243850268536823F44073536020230D
:1039C00080F83D3090F83E30DBB2402B0DD0002324
:1039D00080F83E3012230363FFF76FFDA4E702680F
:1039E000136843F480631360CDE7002380F83E3012
:1039F00003630EF01FFC97E7704710B5806B90F8DB
:103A00003D20416B0023CB63816BCB63046821684D
:103A100021F4806121604385416B0B65816B0B65EF
:103A200001680B6823F001030B6090F83D30DBB2B6
:103A3000602B0DD0D2B202F02802282A12D0202307
:103A400080F83D30002380F83E300EF071FB10BD51
:103A5000202380F83D30002380F83E300364FFF7D8
:103A6000CBFFF4E70268136843F0010313600268B8
:103A7000136843F48063136000230363282380F8F2
:103A80003D30E2E710B5044690F83D30DBB290F8E7
:103A90003E20D2B2102A33D003F02802282A37D091
:103AA0002268526812F4006F04D1602B02D02023E8
:103AB00084F83D300023236384F83E3023685A683D
:103AC00012F4006F48D05A6822F400625A60626BA8
:103AD00092F83530DBB2012B20D0424B1365606B7E
:103AE000FEF7F6F8002849D02268136823F0010396
:103AF0001360202384F83D30606B036D98473DE0F0
:103B0000222BC9D101680A6822F400620A60C3E767
:103B100000232363282384F83D30CFE7A36B314A89
:103B20001A65A06BFEF7D4F840B323685A6912F007
:103B3000400F05D01A69636A1A70636A01336362C1
:103B40002268136823F001031360202384F83D30BA
:103B5000A06B036D984711E094F83D20D2B2602A23
:103B600016D05A6912F0400F05D01A69636A1A70AC
:103B7000636A0133636220460EF0DAFA94F83D304E
:103B8000DBB2226C12F0040F01D0282B18D010BD2C
:103B9000202284F83D20002222645A6912F0400F4E
:103BA00005D01A69636A1A70636A01336362226816
:103BB000136823F0010313602046FFF71DFFDDE7C4
:103BC0002268536823F4E0635360074BE3620023E9
:103BD0002363202284F83D2084F83E302046FFF7FE
:103BE000E3FCD4E7FB3900080000FFFF30B583B0E9
:103BF000044690F83D50EDB20268536823F4E06348
:103C000053600023019303685A6901921A6842F0D5
:103C100001021A60019B0268136823F48063136039
:103C200003685A6812F4006F38D0222D21D02A2D53
:103C30001FD0426B1268526892B24285428D92B296
:103C40001AB1026C42F0040202645A6822F4006263
:103C50005A60606BFEF73EF901281FD0636B444A3F
:103C60001A65606BFEF734F8C0B1606B036D98475E
:103C700014E0A26B1268526892B26285628D92B2B1
:103C80001AB1226C42F0040222645A6822F40062E3
:103C90005A60A06BFEF71EF9012842D1638D9BB2DA
:103CA00033B323685A6912F0040F0AD01A69636AA1
:103CB0001A70636A01336362638D9BB2013B9BB2EE
:103CC000638523685A6912F0400F0AD01A69636A43
:103CD0001A70636A01336362638D9BB2013B9BB2CE
:103CE0006385638D9BB21BB1236C43F00403236493
:103CF000236C13BB2A2D25D094F83D30DBB2282B42
:103D000029D0236B222B01D0222D19D1002323632C
:103D1000202284F83D2084F83E302046FFF7F5FB52
:103D20000EE0A36B124A1A65A06BFDF7D1FF0028C5
:103D3000B4D0A06B036D9847B0E72046FFF7A2FE12
:103D400003B030BD00232363282384F83D30204690
:103D5000FFF7DBFBD0E7074BE3620023236320225E
:103D600084F83D2084F83E302046FFF71DFCE7E74D
:103D7000FB3900080000FFFF70B504460268556873
:103D8000C66A90F83E30DBB290F83D10102B14D08C
:103D9000C8B2402B11D0236C002B71D05369002185
:103DA00013F0020F6FD015F4007F6CD0236C03B1B9
:103DB00091692046FFF7D1FB70BD9069536913F0FC
:103DC000010105D1B6F52A0FF6D0B6F12A4FF3D08E
:103DD00011B115F4007F25D113F0080F02D015F4AE
:103DE000007F26D113F0020F02D015F4007F24D1FA
:103DF00010F0040F29D0526812F4006FDCD113F0D8
:103E0000800F05D015F4806F02D013F0040F18D086
:103E100013F0040FD0D015F4007FCDD02046FFF76B
:103E2000B5FCC9E72046FFF777F92046FEF7E3FF28
:103E3000C2E72046FFF736F8BEE72046FFF749F80D
:103E4000BAE72046FFF7FCFBB6E7526812F4006FB2
:103E5000B2D113F0400F05D015F4806F02D013F0EB
:103E6000040F09D013F0040FA6D015F4007FA3D0DF
:103E70002046FFF72DFD9FE72046FFF7D6FC9BE786
:103E8000916953698CE713F0100F02D015F4007F8D
:103E900017D1212819D0292817D013F0400F05D0A9
:103EA00015F4806F02D013F0040F27D013F0040F25
:103EB00082D015F4007F3FF47FAF2046FFF71CF956
:103EC0007AE72046FFF792FE76E713F0800F05D0E1
:103ED00015F4806F02D013F0040F0BD013F0040F11
:103EE0003FF46AAF15F4007F3FF466AF2046FFF75A
:103EF000F3F861E72046FFF7E2FA5DE72046FFF7B7
:103F000005FB59E7F8B5044603685D695F6815F479
:103F1000807F07D017F4807F3BD06FF480725A61A6
:103F2000012600E0002615F4007F08D017F4807FFA
:103F300005D046F0020623686FF400725A6115F44A
:103F4000806F18D017F4807F15D094F83E30DBB224
:103F5000628D91B294F83D20D2B2206B202B1AD002
:103F600023686FF480625A6146F0040694F83E308C
:103F7000DBB2102B1DD015F4006F08D017F4807F32
:103F800005D046F0080623686FF400625A61B6B99E
:103F9000F8BD0026C7E70029E2D1212A05D0292A49
:103FA00003D0282ADCD12128DAD12046FFF7FEFAF7
:103FB000E1E72268136843F400731360DBE7236CC6
:103FC0001E4326642046FFF75DFDE1E790F83D3093
:103FD000DBB2202B01D002207047242380F83D3033
:103FE0000268136823F0010313600268536A23F028
:103FF000100353620268536A1943516202681368DE
:1040000043F001031360202380F83D300020704707
:1040100090F83D30DBB2202B01D0022070472423E2
:1040200080F83D300268136823F0010313600268D2
:10403000536A9BB223F00F03194389B2516202689D
:10404000136843F001031360202380F83D30002003
:10405000704708B338B5044603684CF6CC421A6082
:10406000036845F255521A60036842685A60036853
:1040700082689A60FDF724F805462368DA6832B151
:10408000FDF71EF8401B3028F7D9032003E04AF65D
:10409000AA221A60002038BD0120704703684AF642
:1040A000AA221A600020704710B582B00023019345
:1040B000194B1A6C42F080521A641B6C03F0805347
:1040C0000193019B154B01221A60FCF7F9FF04468E
:1040D000134B5B6813F4803F08D1FCF7F1FF001B22
:1040E000B0F57A7FF4D9032002B010BD0D4B012248
:1040F0001A60FCF7E5FF0446094B5B6813F4003FC8
:1041000007D1FCF7DDFF001BB0F57A7FF4D903205F
:10411000EAE70020E8E700BF0038024040000E4216
:104120000070004044000E42002800F0B98170B5D4
:1041300082B00446036813F0010F3BD0A64B9B6886
:1041400003F00C03042B2CD0A34B9B6803F00C034F
:10415000082B21D06368B3F5803F4FD0B3F5A02F73
:1041600052D09D4B1A6822F480321A601A6822F4E9
:1041700080221A606368002B50D0FCF7A1FF05462F
:10418000954B1B6813F4003F14D1FCF799FF401BBB
:104190006428F5D903208AE18F4B5B6813F4800F04
:1041A000D8D08D4B1B6813F4003F03D06368002BFD
:1041B00000F07881236813F0020F54D0864B9B687F
:1041C00013F00C0F3ED0844B9B6803F00C03082BBC
:1041D00033D0E368002B67D0804B01221A60FCF7D4
:1041E0006FFF05467C4B1B6813F0020F53D1FCF7A1
:1041F00067FF401B0228F5D9032058E1764A13686F
:1042000043F480331360B5E7734B1A6842F480229D
:104210001A601A6842F480321A60ABE7FCF750FF6C
:1042200005466D4B1B6813F4003FC3D0FCF748FFF5
:10423000401B6428F5D9032039E1674B5B6813F410
:10424000800FC6D1644B1B6813F0020F03D0E368E4
:10425000012B40F02981604A136823F0F80321699B
:1042600043EAC1031360236813F0080F40D0636969
:1042700063B35B4B01221A60FCF722FF0546564BE5
:104280005B6F13F0020F33D1FCF71AFF401B0228BB
:10429000F5D903200BE1504A136823F0F803216994
:1042A00043EAC1031360DEE74C4B00221A60FCF7BF
:1042B00007FF0546484B1B6813F0020FD3D0FCF7ED
:1042C000FFFE401B0228F5D90320F0E0444B0022FA
:1042D0001A60FCF7F5FE05463F4B5B6F13F0020FCB
:1042E00006D0FCF7EDFE401B0228F5D90320DEE0E6
:1042F000236813F0040F78D0374B1B6C13F0805FEA
:104300000DD100230193344B1A6C42F080521A6491
:104310001B6C03F080530193019B012500E00025F5
:10432000304B1B6813F4807F21D0A368012B32D05F
:10433000052B36D0284B1A6F22F001021A671A6F2C
:1043400022F004021A67A368002B34D0FCF7B8FEF1
:104350000646214B1B6F13F0020F45D1FCF7B0FE50
:10436000801B41F288339842F3D903209FE01D4A15
:10437000136843F480731360FCF7A2FE0646194BE2
:104380001B6813F4807FD0D1FCF79AFE801B0228B3
:10439000F5D903208BE0104A136F43F00103136734
:1043A000D1E70D4B1A6F42F004021A671A6F42F000
:1043B00001021A67C7E7FCF783FE0646064B1B6F30
:1043C00013F0020F10D0FCF77BFE801B41F2883304
:1043D0009842F3D903206AE00038024000004742C7
:1043E000800E474200700040E5B9A369002B5DD004
:1043F000314A926802F00C02082A5AD0022B17D0D8
:104400002E4B00221A60FCF75BFE04462A4B1B6809
:1044100013F0007F42D0FCF753FE001B0228F5D9B1
:10442000032044E0244A136C23F080531364DCE738
:10443000224B00221A60FCF743FE05461E4B1B6808
:1044400013F0007F06D0FCF73BFE401B0228F5D995
:1044500003202CE0E369226A1343626A43EA821371
:10446000A26A5208013A43EA0243E26A43EA02635B
:10447000114A5360114B01221A60FCF721FE0446D9
:104480000D4B1B6813F0007F06D1FCF719FE001BD3
:104490000228F5D903200AE0002008E0002006E009
:1044A00001207047012002E0012000E0002002B05E
:1044B00070BD0120FBE700BF0038024060004742AA
:1044C000014B01221A6070474C004742F8B5244B5B
:1044D0009B6803F00C03042B3DD0082B3DD1204BEF
:1044E0005A6802F03F025B6813F4800F12D01C4B35
:1044F0005968C1F3881100231A48A1FB0001FCF799
:10450000E3FB174B5B68C3F3014301335B00B0FB74
:10451000F3F023E0124B5B68C3F388135C010025C2
:10452000E41A65F10005AE0146EA9466A701381B5E
:1045300066EB0501CC0044EA5074C500E81844F16C
:1045400000018B0243EA905384022046194600235F
:10455000FCF7BAFBD5E7034800E00348F8BD00BF0D
:104560000038024040787D010024F400002800F06B
:104570009A8070B50D4604464F4B1B6803F00F033D
:104580008B4208D2CBB24C4A1370136803F00F036E
:104590008B4240F08A80236813F0020F17D013F08B
:1045A000040F04D0454A936843F4E05393602368B2
:1045B00013F0080F04D0414A936843F460439360BA
:1045C0003E4A936823F0F003A1680B43936023688D
:1045D00013F0010F32D06368012B21D09A1E012AFB
:1045E00025D9364A126812F0020F60D033498A6822
:1045F00022F0030213438B60FCF762FD06462F4B4B
:104600009B6803F00C036268B3EB820F16D0FCF7D3
:1046100057FD801B41F288339842F0D9032041E0D6
:10462000264A126812F4003FE0D101203AE0234A02
:10463000126812F0007FD9D1012033E01E4B1B68B5
:1046400003F00F03AB4207D9EAB21B4B1A701B6889
:1046500003F00F03AB422CD1236813F0040F06D0F4
:10466000164A936823F4E053E1680B439360236890
:1046700013F0080F07D0114A936823F460432169AF
:1046800043EAC1039360FFF721FF0C4B9B68C3F320
:1046900003130B4AD35CD8400A4B18600020FCF788
:1046A000C5FC002070BD012070470120FAE7012001
:1046B000F8E70120F6E700BF003C02400038024066
:1046C0002CA301085C290020014B1868704700BF2B
:1046D0005C29002008B5FFF7F7FF044B9B68C3F384
:1046E0008223034AD35CD84008BD00BF0038024093
:1046F0003CA3010830B583B00446036813F0030FF0
:1047000014D1236813F00C0F5AD1236813F0200F33
:1047100040F0AF80236813F0100F00F0118194F87F
:104720002C20884B1A60002003B030BD864B00223D
:104730001A60FCF7C5FC0546844B1B6813F0006F3C
:1047400006D0FCF7BDFC431B022BF5D90320EBE799
:10475000236813F0010F07D06268A3681B0743EAC0
:1047600082137A4AC2F88430236813F0020F15D0FE
:10477000764AD2F884106068E3681B0643EA801327
:1047800001F0E0410B43C2F88430D2F88C3023F0C2
:104790001F03E16901390B43C2F88C306A4B0122D7
:1047A0001A60FCF78DFC0546684B1B6813F0006F20
:1047B000A7D1FCF785FC401B0228F5D90320B3E7FD
:1047C000634B00221A60FCF77BFC05465F4B1B68BD
:1047D00013F0005F06D0FCF773FC431B022BF5D9E6
:1047E0000320A1E7236813F0040F16D0574AD2F82C
:1047F0008810206963691B0643EA801301F0E041D9
:104800000B43C2F88830D2F88C3023F4F853216A75
:10481000013943EA0123C2F88C30236813F0080FF2
:1048200014D04A4AD2F88830216903F0706343EA11
:104830008113A16943EA0173C2F88830D2F88C3041
:1048400023F44033616A0B43C2F88C30404B0122A1
:104850001A60FCF735FC05463C4B1B6813F0005F03
:104860007FF453AFFCF72CFC401B0228F4D9032043
:104870005AE700230193354B1A6C42F080521A64B8
:104880001B6C03F080530193019B324A136843F47D
:1048900080731360FCF714FC05462E4B1B6813F461
:1048A000807F06D1FCF70CFC401B0228F5D90320C1
:1048B0003AE7264B1B6F13F4407312D0A26A02F43E
:1048C00040729A420DD0214B1A6F22F44072224955
:1048D00001200860002008601A671B6F13F0010FA9
:1048E00012D1A36A03F44072B2F5407F1DD0174A7B
:1048F000936823F4F813936014490B6FA26AC2F310
:104900000B0213430B6705E7FCF7DAFB05460F4B79
:104910001B6F13F0020FE4D1FCF7D2FB401B41F2F6
:1049200088339842F3D90320FEE608498A6822F4C6
:10493000F81223F0704323F4407313438B60DBE7DA
:104940000020F1E6E011474268004742003802408B
:104950007000474200700040400E474210B50446C8
:104960000368DA6812F4807F03D09B6813F4805FD9
:104970000FD12368DA6812F4007F03D09B6813F428
:10498000005F0FD10C4B4FF400325A610123637763
:1049900010BD0DF050FE2268D368DBB263F4C07323
:1049A000D360E6E7204600F007FA2268D368DBB25E
:1049B00063F42073D360E5E7003C014038B504465A
:1049C0000268D36823F0A003D360FCF779FB0546A7
:1049D0002368DB6813F0200F07D1FCF771FB401B45
:1049E000B0F57A7FF4D9032000E0002038BD38B557
:1049F0000368DA6812F0400F01D0002038BD044689
:104A00004FF0FF32DA60FCF75BFB05462368DB689A
:104A100013F0400F07D1FCF753FB431BB3F57A7F2C
:104A2000F4D90320EAE70020E8E738B500285CD095
:104A30000446437F002B41D0022363772368CA22B8
:104A40005A62236853225A622046FFF7D0FF054678
:104A5000002837D12268936823F4E00323F0400351
:104A6000936021688A68636820690343606903432F
:104A700013438B602368E2681A6122681369A16896
:104A800043EA014313612268D36823F08003D360B3
:104A900023689B6813F0200F1BD02268136C23F44B
:104AA000802313642268136CA1690B431364236889
:104AB000FF225A6201236377284638BD03770CF042
:104AC000C3FAB9E72368FF225A62042363770125FA
:104AD000F2E72046FFF772FF0028DED02368FF22AE
:104AE0005A62042363770125E6E70125E4E7002302
:104AF000092803D901330A38C0B2F9E71B01DBB238
:104B000018437047F8B5037F012B78D004460E4652
:104B10000123037702234377002A47D103689B6868
:104B200013F0400F01D10023CB703078FFF7DFFF87
:104B300005047078FFF7DBFF45EA0025B078FFF742
:104B4000D6FF0543F07845EA00452368CA225A6239
:104B5000236853225A622046FFF749FF0746002880
:104B600036D1236805F07F3525F0FE451D602268AB
:104B7000936823F48023936021688B68F26830691E
:104B8000024313438B602268D36823F08003D36011
:104B900023689B6813F0200F23D02368FF225A62FA
:104BA00001236377002323773846F8BD03689B68A9
:104BB00013F0400F01D10023CB70357870780002DC
:104BC00040EA0540B5782843F57840EA0545BCE75A
:104BD0002368FF225A620423637700232377012787
:104BE000E2E72046FFF7EAFE0028D6D02368FF223E
:104BF0005A6204236377002323770127D4E702272F
:104C0000D2E770B5037F012B66D004460E46012320
:104C10000377022343773AB94B7813F0100F03D090
:104C200003F0EF030A334B70002A33D1F078FFF71B
:104C30005EFF05047078FFF75AFF45EA0025B0785B
:104C4000FFF755FF0543307845EA40352368CA220F
:104C50005A62236853225A622046FFF7C8FE06466E
:104C600018BB236825F07F4525F0C0055D602268EC
:104C7000D36823F08003D36023689B6813F0200F70
:104C80001CD02368FF225A62012363770023237715
:104C9000304670BDF5787078000240EA0540B5787E
:104CA0002843357840EA4535D0E72368FF225A6229
:104CB00004236377002323770126E9E72046FFF7E3
:104CC0007DFE0028DDD02368FF225A62042363772B
:104CD000002323770126DBE70226D9E7030903EB4C
:104CE000830300F00F0000EB4300C0B2704770B5C3
:104CF0000C4603689B6A4B6003681B69C3F30E0391
:104D00008B6003681D68C5F30641C5F3054020703C
:104D1000C5F30626667005F07F05A57001F0400317
:104D2000E37052B9FFF7DAFF20703046FFF7D6FF85
:104D300060702846FFF7D2FFA070002070BD70B5EC
:104D400003685B68C3F30740C870C3F304264E7062
:104D500003F03F058D70C3F342330B705AB90C4614
:104D6000FFF7BCFFE0703046FFF7B8FF60702846E1
:104D7000FFF7B4FFA070002070BD000010B504461E
:104D80000368DA6812F4806F03D09B6813F4804FD5
:104D900006D1084B4FF480025A610123637710BD9E
:104DA0000DF048FC2268D368DBB263F49063D360F3
:104DB000EFE700BF003C014070472DE9F041064697
:104DC000884617461D463468A46838EA04030CBFB9
:104DD00001240024BC4237D0B5F1FF3FF3D0FCF7EB
:104DE0006FF9069BC01AA84201D2002DEBD13268A0
:104DF000536823F0E00353607368B3F5827F0BD0F0
:104E0000B36AB3F5005F14D0012386F85130002354
:104E100086F85030032018E0B368B3F5004F02D095
:104E2000B3F5806FECD13268136823F04003136050
:104E3000E6E73268136823F400531360326813689E
:104E400043F400531360DFE70020BDE8F081000069
:104E500030B585B00446164B1868164BA3FB0030DE
:104E6000400D4FF47A7505FB00F003906368B3F5CD
:104E7000827F0BD0039BBBB1039B013B0393236851
:104E80009B6813F0800FF5D100200EE000920B46D6
:104E9000002280212046FFF790FF30B1636D43F080
:104EA00020036365032000E0002005B030BD00BF93
:104EB0005C290020819F5E1610B582B004460B4627
:104EC0004168B1F5827F14D06168B1F5827F2AD143
:104ED000A168B1F5806F19D0009200228021204690
:104EE000FFF76BFF30B3636D43F02003636503206E
:104EF00020E08168B1F5004F02D0B1F5806FE3D1B9
:104F00002068016821F040010160DDE70092002285
:104F100001212046FFF751FF60B1636D43F020038C
:104F20006365032006E00092002201212046FFF77E
:104F300044FF08B902B010BD636D43F02003636500
:104F40000320F7E700283BD010B504460023836216
:104F500090F85130002B2ED0022384F85130226873
:104F6000136823F0400313606368A2681343E26888
:104F700013432269134362691343A26902F4007266
:104F80001343E2691343226A1343A16A22680B4365
:104F90001360638B03F00403616A22680B43536060
:104FA0002268D36923F40063D36100206065012384
:104FB00084F8513010BD80F850300CF0CDFCCBE7B8
:104FC00001207047034690F85000012843D001208B
:104FD00083F85000002933D0002A33D093F85100D1
:104FE000C0B2012833D1032083F851000020586556
:104FF00019639A86DA8698639887D8871864DA687E
:10500000AAB1164A5A649A68B2F5004F12D01968CC
:105010004A6842F0A0024A601A68116811F0400F15
:1050200017D1116841F04001116000200BE00C4ADB
:105030005A64E8E719680A6842F480420A60E6E7C1
:10504000012000E00120002283F850207047022058
:10505000F9E70020F7E70220704700BFA1520008DF
:105060007952000830B4044690F85000012853D01B
:10507000012084F8500094F85100C0B265680128FE
:1050800007D0B5F5827F35D1A568002D38D1042829
:1050900038D1002938D0002A38D0002B38D094F8E5
:1050A0005100C0B2042802D0052084F8510000202D
:1050B00060652163A386E386A263A387E387E36831
:1050C0009BB1164B2364164B63642268536843F00C
:1050D000E003536023681A6812F0400F1AD11A686F
:1050E00042F040021A60002005E00E4B23640E4B94
:1050F0006364EAE70220002384F8503030BC704734
:105100000220F8E70220F6E70120F4E70120F2E7A9
:105110000120F0E70020EEE70220EFE7C954000885
:1051200091540008595400082154000810B5044651
:1051300083681BB94068B0F5827F32D094F8500084
:10514000012847D0012084F8500094F85100C0B2E3
:10515000012838D1002937D0002A35D0042084F81E
:10516000510000206065A163A287E2872063A086CA
:10517000E0866064E268EAB1174A2264B3F5004F42
:105180001BD02268536843F06003536023681A6899
:1051900012F0400F1CD11A6842F040021A60002041
:1051A00012E0042384F8513013460A462046FFF7E4
:1051B00059FF0CE0094A2264E0E72268136823F4EF
:1051C00080431360DDE70220002384F8503010BDD7
:1051D0000020F9E70220FAE7475300081F530008B0
:1051E000704770477047704710B582B00446204B37
:1051F0001B68204AA2FB03235B0A642202FB03F321
:105200000193FBF75DFF0246019B43B1019B013B0C
:10521000019323689B6813F0020FF5D003E0636DE0
:1052200043F02003636521684B6823F0A0034B60C3
:1052300064212046FFF70CFE18B1636D43F0200394
:105240006365A36833B900932368DA6800929B68AA
:105250000093009B012384F85130636D23B12046F5
:10526000FFF7C1FF02B010BD2046FFF7B9FFF9E715
:105270005C290020F119760508B5026B03681278E5
:105280001A73036B01330363C38E9BB2013B9BB262
:10529000C386C38E9BB203B108BDFFF7A5FFFBE732
:1052A00008B5026B03681288DA60036B023303638C
:1052B000C38E9BB2013B9BB2C386C38E9BB203B12C
:1052C00008BDFFF791FFFBE710B582B00446026806
:1052D000536823F060035360FBF7F2FE024664213B
:1052E0002046FFF7E9FD18B1636D43F020036365C5
:1052F000A36833B901932368DA6801929B6801932C
:10530000019B012384F85130636D23B92046FFF7D8
:1053100068FF02B010BD2046FFF765FFF9E708B54A
:105320000268836B127B1A70836B01338363C38FB4
:105330009BB2013B9BB2C387C38F9BB203B108BD35
:10534000FFF7C2FFFBE708B50368DA68836B1A80D2
:10535000836B02338363C38F9BB2013B9BB2C387D2
:10536000C38F9BB203B108BDFFF7AEFFFBE70000A0
:1053700010B582B00446284B1B68284AA2FB0323C1
:105380005B0A642202FB03F30193FBF799FE0246DA
:1053900021684B6823F020034B60019B43B1019BC4
:1053A000013B019323689B6813F0020FF5D003E0E3
:1053B000636D43F02003636564212046FFF748FDD9
:1053C00018B1636D43F020036365A36833B900939C
:1053D0002368DA6800929B680093009B636D9BB919
:1053E00094F85130DBB2042B07D0012384F85130FC
:1053F0002046FFF7F7FE02B010BD012384F85130BC
:105400002046FFF7EEFEF6E7012384F851302046F0
:10541000FFF7E9FEEFE700BF5C290020F1197605F0
:1054200008B5026B036812781A73036B01330363C8
:10543000C38E9BB2013B9BB2C386C38E9BB23BB96A
:105440000268536823F080035360C38F9BB203B19B
:1054500008BDFFF78DFFFBE708B50268836B127B81
:105460001A70836B01338363C38F9BB2013B9BB282
:10547000C387C38F9BB23BB90268536823F06003B4
:105480005360C38E9BB203B108BDFFF771FFFBE70A
:1054900008B5026B03681288DA60036B023303639A
:1054A000C38E9BB2013B9BB2C386C38E9BB23BB9FA
:1054B0000268536823F080035360C38F9BB203B12B
:1054C00008BDFFF755FFFBE708B50368DA68836B93
:1054D0001A80836B02338363C38F9BB2013B9BB201
:1054E000C387C38F9BB23BB90268536823F0400364
:1054F0005360C38E9BB203B108BDFFF739FFFBE7D2
:1055000030B585B00446026851689368C3F38010D3
:1055100013F0400F05D113F0010F02D011F0400F2E
:1055200069D113F0020F02D011F0800F67D1C3F3DD
:10553000401513F0200F03D110B913F4807F61D010
:1055400011F0200F5ED078B194F85100C0B203285A
:105550005AD0606D40F00400606500200090D06873
:10556000009090680090009865B1606D40F0010077
:1055700060650020029090680290106820F0400062
:105580001060029A13F4807F09D0636D43F0080322
:1055900063650023039323689B680393039B636DF8
:1055A000002B2FD02268536823F0E00353600123BF
:1055B00084F8513011F0030F2ED02268536823F085
:1055C00003035360E36C4BB1154A1A65E06CFCF7BA
:1055D0007FFB18B1636D43F040036365A36C8BB12F
:1055E0000F4A1A65A06CFCF773FB58B1636D43F06A
:1055F0004003636506E0236C2046984702E0636C35
:105600002046984705B030BD00230193D36801932D
:1056100093680193019BF5E72046FFF7E4FDF1E76E
:105620002556000808B5806B0023C387C386FFF7A3
:10563000DAFD08BD0268D36843F00103D360026855
:10564000936803F00703062B03D0136843F00103AC
:10565000136000207047704770477047704710B55F
:10566000044603681A6912F0020F11D0DA6812F0CA
:10567000020F0DD06FF002021A6101230377036855
:105680009B6913F0030F70D0FFF7E6FF0023237729
:1056900023681A6912F0040F12D0DA6812F0040FAE
:1056A0000ED06FF004021A610223237723689B69EE
:1056B00013F4407F5FD02046FFF7CEFF002323770F
:1056C00023681A6912F0080F12D0DA6812F0080F76
:1056D0000ED06FF008021A61042323772368DB6978
:1056E00013F0030F4ED02046FFF7B6FF00232377B9
:1056F00023681A6912F0100F12D0DA6812F0100F36
:105700000ED06FF010021A61082323772368DB693B
:1057100013F4407F3DD02046FFF79EFF0023237700
:1057200023681A6912F0010F03D0DA6812F0010F32
:1057300036D123681A6912F0800F03D0DA6812F0AC
:10574000800F34D123681A6912F0400F03D0DA6851
:1057500012F0400F32D123681A6912F0200F03D0E3
:10576000DA6812F0200F30D110BDFFF774FF204629
:10577000FFF773FF8AE72046FFF76DFF2046FFF72C
:105780006CFF9BE72046FFF766FF2046FFF765FFAB
:10579000ACE72046FFF75FFF2046FFF75EFFBDE75F
:1057A0006FF001021A6120460CF0DEFFC1E76FF0D6
:1057B00080021A61204600F0B1F8C3E76FF04002A2
:1057C0001A612046FFF74AFFC5E76FF020021A6111
:1057D000204600F0A2F8C7E70368304A904212D092
:1057E000B0F1804F0FD0A2F57C4290420BD002F571
:1057F0008062904207D002F58062904203D002F5A9
:105800007842904203D123F070034A681343234A3D
:1058100090422AD0B0F1804F27D0A2F57C4290422E
:1058200023D002F5806290421FD002F58062904240
:105830001BD002F57842904217D002F57052904288
:1058400013D002F5806290420FD002F58062904240
:105850000BD0A2F59832904207D002F580629042B8
:1058600003D002F58062904203D123F44073CA68EA
:10587000134323F080034A69134303608B68C362B8
:105880000B688362054B984203D003F5806398420E
:1058900001D10B690363012343617047000001409C
:1058A000B0B110B5044690F83D3063B1022384F8DE
:1058B0003D30214651F8040BFFF78EFF012384F899
:1058C0003D30002010BD80F83C300CF00DFAEDE7C3
:1058D0000120704790F83C30012B1CD070B4012699
:1058E00080F83C60022380F83D3002685568936878
:1058F00025F070050C682C4323F080054B682B4382
:1059000054600268936080F83D60002380F83C306A
:10591000184670BC70470220704770477047F0B45B
:105920000C6894FAA4F4B4FA84F42CE08E688268CB
:1059300093FAA3F5B5FA85F56D0007FA05F522EAA5
:10594000050293FAA3F5B5FA85F56D0006FA05F59B
:105950002A4382600E69C26893FAA3F5B5FA85F509
:105960006D00032707FA05F522EA050293FAA3F56D
:10597000B5FA85F56D0006FA05F52A43C2604A6856
:10598000022A22D001340B6833FA04F250D00122EB
:10599000A2401340F6D04E68026893FAA3F5B5FA18
:1059A00085F56D00032707FA05F522EA050293FA4B
:1059B000A3F5B5FA85F56D0006FA05F52A430260F0
:1059C0004A68013A012AC5D8B0E793FAA3F2B2FABD
:1059D00082F2072A15D84D69026A93FAA3F6B6FA3D
:1059E00086F6B6000F2707FA06F622EA060293FAB1
:1059F000A3F3B3FA83F39B0005FA03F313430362A3
:105A0000C0E74A69456A1B0A93FAA3F6B6FA86F616
:105A1000B6000F2707FA06F625EA060593FAA3F360
:105A2000B3FA83F39B0002FA03F32B434362A9E723
:105A30004A68013A012A02D90020F0BC7047C968BF
:105A4000426822EA030201FB03F313434360F3E7D6
:105A5000034B9B68C3F30313024AD35CD8407047DF
:105A6000003802402CA30108034B9B68C3F3822338
:105A7000024AD35CD8407047003802403CA301087A
:105A8000034B9B68C3F34233024AD35CD840704750
:105A9000003802403CA301080F4B5B6803F480030D
:105AA00023B90E4B082803D0002070470C4BF9E7B0
:105AB000094A506800F03F00B3FBF0F35068C0F3B0
:105AC000881000FB03F05368C3F3014301335B000C
:105AD000B0FBF3F0704700BF003802400024F40030
